{
  "contractName": "TicTacToe",
  "abi": [
    {
      "anonymous": false,
      "inputs": [
        {
          "indexed": true,
          "internalType": "address",
          "name": "sender",
          "type": "address"
        },
        {
          "indexed": true,
          "internalType": "uint256",
          "name": "gameId",
          "type": "uint256"
        }
      ],
      "name": "GameCreated",
      "type": "event"
    },
    {
      "anonymous": false,
      "inputs": [
        {
          "indexed": true,
          "internalType": "address",
          "name": "sender",
          "type": "address"
        },
        {
          "indexed": true,
          "internalType": "uint256",
          "name": "gameId",
          "type": "uint256"
        }
      ],
      "name": "MoveMade",
      "type": "event"
    },
    {
      "anonymous": false,
      "inputs": [
        {
          "indexed": true,
          "internalType": "address",
          "name": "sender",
          "type": "address"
        },
        {
          "indexed": true,
          "internalType": "uint256",
          "name": "gameId",
          "type": "uint256"
        }
      ],
      "name": "OpponentJoinedGame",
      "type": "event"
    },
    {
      "inputs": [
        {
          "internalType": "uint256",
          "name": "",
          "type": "uint256"
        }
      ],
      "name": "games",
      "outputs": [
        {
          "internalType": "address",
          "name": "status",
          "type": "address"
        },
        {
          "internalType": "address",
          "name": "player1",
          "type": "address"
        },
        {
          "internalType": "address",
          "name": "player2",
          "type": "address"
        },
        {
          "internalType": "uint256",
          "name": "prize",
          "type": "uint256"
        },
        {
          "internalType": "enum TicTacToe.MoveType",
          "name": "nextMoveTo",
          "type": "uint8"
        }
      ],
      "stateMutability": "view",
      "type": "function",
      "constant": true
    },
    {
      "inputs": [],
      "name": "gamesCounter",
      "outputs": [
        {
          "internalType": "uint256",
          "name": "",
          "type": "uint256"
        }
      ],
      "stateMutability": "view",
      "type": "function",
      "constant": true
    },
    {
      "inputs": [],
      "name": "startNewGame",
      "outputs": [],
      "stateMutability": "payable",
      "type": "function",
      "payable": true
    },
    {
      "inputs": [
        {
          "internalType": "uint256",
          "name": "_gameId",
          "type": "uint256"
        }
      ],
      "name": "getGame",
      "outputs": [
        {
          "components": [
            {
              "internalType": "enum TicTacToe.MoveType[9]",
              "name": "squares",
              "type": "uint8[9]"
            },
            {
              "internalType": "address",
              "name": "status",
              "type": "address"
            },
            {
              "internalType": "address",
              "name": "player1",
              "type": "address"
            },
            {
              "internalType": "address",
              "name": "player2",
              "type": "address"
            },
            {
              "internalType": "uint256",
              "name": "prize",
              "type": "uint256"
            },
            {
              "internalType": "enum TicTacToe.MoveType",
              "name": "nextMoveTo",
              "type": "uint8"
            }
          ],
          "internalType": "struct TicTacToe.Game",
          "name": "",
          "type": "tuple"
        }
      ],
      "stateMutability": "view",
      "type": "function",
      "constant": true
    },
    {
      "inputs": [
        {
          "internalType": "uint256",
          "name": "_gameId",
          "type": "uint256"
        }
      ],
      "name": "joinGame",
      "outputs": [],
      "stateMutability": "payable",
      "type": "function",
      "payable": true
    },
    {
      "inputs": [
        {
          "internalType": "uint256",
          "name": "_gameId",
          "type": "uint256"
        },
        {
          "internalType": "uint8",
          "name": "_move",
          "type": "uint8"
        }
      ],
      "name": "makeMove",
      "outputs": [],
      "stateMutability": "nonpayable",
      "type": "function"
    }
  ],
  "bytecode": "0x6080604052600060015534801561001557600080fd5b50612373806100256000396000f3fe6080604052600436106100555760003560e01c8063117a5b901461005a578063482d51e01461009b5780635eb6a78f146100a55780637fd6f7c4146100d0578063a2f77bcc146100f9578063efaa55a014610136575b600080fd5b34801561006657600080fd5b50610081600480360381019061007c9190611b77565b610152565b604051610092959493929190611e23565b60405180910390f35b6100a36101f5565b005b3480156100b157600080fd5b506100ba6105e7565b6040516100c79190611f72565b60405180910390f35b3480156100dc57600080fd5b506100f760048036038101906100f29190611ba4565b6105ed565b005b34801561010557600080fd5b50610120600480360381019061011b9190611b77565b610c9a565b60405161012d9190611f56565b60405180910390f35b610150600480360381019061014b9190611b77565b610e87565b005b60006020528060005260406000206000915090508060010160009054906101000a900473ffffffffffffffffffffffffffffffffffffffff16908060020160009054906101000a900473ffffffffffffffffffffffffffffffffffffffff16908060030160009054906101000a900473ffffffffffffffffffffffffffffffffffffffff16908060040154908060050160009054906101000a900460ff16905085565b60003411610238576040517f08c379a000000000000000000000000000000000000000000000000000000000815260040161022f90611f16565b60405180910390fd5b6001600081548092919061024b9061208f565b919050555060006040518060c001604052806040518061012001604052806000600281111561027d5761027c612107565b5b600281111561028f5761028e612107565b5b8152602001600060028111156102a8576102a7612107565b5b60028111156102ba576102b9612107565b5b8152602001600060028111156102d3576102d2612107565b5b60028111156102e5576102e4612107565b5b8152602001600060028111156102fe576102fd612107565b5b60028111156103105761030f612107565b5b81526020016000600281111561032957610328612107565b5b600281111561033b5761033a612107565b5b81526020016000600281111561035457610353612107565b5b600281111561036657610365612107565b5b81526020016000600281111561037f5761037e612107565b5b600281111561039157610390612107565b5b8152602001600060028111156103aa576103a9612107565b5b60028111156103bc576103bb612107565b5b8152602001600060028111156103d5576103d4612107565b5b60028111156103e7576103e6612107565b5b81525081526020018273ffffffffffffffffffffffffffffffffffffffff1681526020013373ffffffffffffffffffffffffffffffffffffffff1681526020018273ffffffffffffffffffffffffffffffffffffffff1681526020013481526020016001600281111561045d5761045c612107565b5b815250600080600154815260200190815260200160002060008201518160000190600961048b9291906119d4565b5060208201518160010160006101000a81548173ffffffffffffffffffffffffffffffffffffffff021916908373ffffffffffffffffffffffffffffffffffffffff16021790555060408201518160020160006101000a81548173ffffffffffffffffffffffffffffffffffffffff021916908373ffffffffffffffffffffffffffffffffffffffff16021790555060608201518160030160006101000a81548173ffffffffffffffffffffffffffffffffffffffff021916908373ffffffffffffffffffffffffffffffffffffffff1602179055506080820151816004015560a08201518160050160006101000a81548160ff0219169083600281111561059657610595612107565b5b02179055509050506001543373ffffffffffffffffffffffffffffffffffffffff167f306841c3fce8498c2d9b7194b8da4c04d03847394e237b625ce6d029b107f07760405160405180910390a350565b60015481565b81600073ffffffffffffffffffffffffffffffffffffffff1660008083815260200190815260200160002060020160009054906101000a900473ffffffffffffffffffffffffffffffffffffffff1673ffffffffffffffffffffffffffffffffffffffff16141580156106c15750600073ffffffffffffffffffffffffffffffffffffffff1660008083815260200190815260200160002060010160009054906101000a900473ffffffffffffffffffffffffffffffffffffffff1673ffffffffffffffffffffffffffffffffffffffff16145b610700576040517f08c379a00000000000000000000000000000000000000000000000000000000081526004016106f790611eb6565b60405180910390fd5b82600080600083815260200190815260200160002090503373ffffffffffffffffffffffffffffffffffffffff168160020160009054906101000a900473ffffffffffffffffffffffffffffffffffffffff1673ffffffffffffffffffffffffffffffffffffffff1614806107c457503373ffffffffffffffffffffffffffffffffffffffff168160030160009054906101000a900473ffffffffffffffffffffffffffffffffffffffff1673ffffffffffffffffffffffffffffffffffffffff16145b610803576040517f08c379a00000000000000000000000000000000000000000000000000000000081526004016107fa90611ed6565b60405180910390fd5b6000806000878152602001908152602001600020905060008160020160009054906101000a900473ffffffffffffffffffffffffffffffffffffffff1673ffffffffffffffffffffffffffffffffffffffff163373ffffffffffffffffffffffffffffffffffffffff161461087957600261087c565b60015b90508160050160009054906101000a900460ff1660028111156108a2576108a1612107565b5b8160028111156108b5576108b4612107565b5b146108f5576040517f08c379a00000000000000000000000000000000000000000000000000000000081526004016108ec90611e96565b60405180910390fd5b6000600281111561090957610908612107565b5b826000018760ff166009811061092257610921612136565b5b602091828204019190069054906101000a900460ff16600281111561094a57610949612107565b5b1461098a576040517f08c379a000000000000000000000000000000000000000000000000000000000815260040161098190611ef6565b60405180910390fd5b8160050160009054906101000a900460ff16826000018760ff16600981106109b5576109b4612136565b5b602091828204019190066101000a81548160ff021916908360028111156109df576109de612107565b5b02179055506109ff828360050160009054906101000a900460ff16611131565b600280811115610a1257610a11612107565b5b8260050160009054906101000a900460ff166002811115610a3657610a35612107565b5b14610a42576002610a45565b60015b8260050160006101000a81548160ff02191690836002811115610a6b57610a6a612107565b5b02179055508160020160009054906101000a900473ffffffffffffffffffffffffffffffffffffffff1673ffffffffffffffffffffffffffffffffffffffff168260010160009054906101000a900473ffffffffffffffffffffffffffffffffffffffff1673ffffffffffffffffffffffffffffffffffffffff161415610b60578160020160009054906101000a900473ffffffffffffffffffffffffffffffffffffffff1673ffffffffffffffffffffffffffffffffffffffff166108fc83600401549081150290604051600060405180830381858888f19350505050158015610b5a573d6000803e3d6000fd5b50610c4d565b8160030160009054906101000a900473ffffffffffffffffffffffffffffffffffffffff1673ffffffffffffffffffffffffffffffffffffffff168260010160009054906101000a900473ffffffffffffffffffffffffffffffffffffffff1673ffffffffffffffffffffffffffffffffffffffff161415610c4c578160030160009054906101000a900473ffffffffffffffffffffffffffffffffffffffff1673ffffffffffffffffffffffffffffffffffffffff166108fc83600401549081150290604051600060405180830381858888f19350505050158015610c4a573d6000803e3d6000fd5b505b5b863373ffffffffffffffffffffffffffffffffffffffff167fb13c9eddeed86625d85b3fee48ce18f68531425f217acae275b731c379d7cc1f60405160405180910390a350505050505050565b610ca2611a7d565b6000808381526020019081526020016000206040518060c001604052908160008201600980602002604051908101604052809291908260098015610d30576020028201916000905b82829054906101000a900460ff166002811115610d0a57610d09612107565b5b81526020019060010190602082600001049283019260010382029150808411610cea5790505b505050505081526020016001820160009054906101000a900473ffffffffffffffffffffffffffffffffffffffff1673ffffffffffffffffffffffffffffffffffffffff1673ffffffffffffffffffffffffffffffffffffffff1681526020016002820160009054906101000a900473ffffffffffffffffffffffffffffffffffffffff1673ffffffffffffffffffffffffffffffffffffffff1673ffffffffffffffffffffffffffffffffffffffff1681526020016003820160009054906101000a900473ffffffffffffffffffffffffffffffffffffffff1673ffffffffffffffffffffffffffffffffffffffff1673ffffffffffffffffffffffffffffffffffffffff168152602001600482015481526020016005820160009054906101000a900460ff166002811115610e6a57610e69612107565b5b6002811115610e7c57610e7b612107565b5b815250509050919050565b80600073ffffffffffffffffffffffffffffffffffffffff1660008083815260200190815260200160002060020160009054906101000a900473ffffffffffffffffffffffffffffffffffffffff1673ffffffffffffffffffffffffffffffffffffffff1614158015610f5b5750600073ffffffffffffffffffffffffffffffffffffffff1660008083815260200190815260200160002060010160009054906101000a900473ffffffffffffffffffffffffffffffffffffffff1673ffffffffffffffffffffffffffffffffffffffff16145b610f9a576040517f08c379a0000000000000000000000000000000000000000000000000000000008152600401610f9190611eb6565b60405180910390fd5b600080600084815260200190815260200160002090508060020160009054906101000a900473ffffffffffffffffffffffffffffffffffffffff1673ffffffffffffffffffffffffffffffffffffffff163373ffffffffffffffffffffffffffffffffffffffff161415611043576040517f08c379a000000000000000000000000000000000000000000000000000000000815260040161103a90611f36565b60405180910390fd5b806004015434101561108a576040517f08c379a000000000000000000000000000000000000000000000000000000000815260040161108190611e76565b60405180910390fd5b338160030160006101000a81548173ffffffffffffffffffffffffffffffffffffffff021916908373ffffffffffffffffffffffffffffffffffffffff160217905550348160040160008282546110e19190611fcb565b92505081905550823373ffffffffffffffffffffffffffffffffffffffff167fffd096669cd4c4e0a185f4fc576f87a79768bcff866fec8396f4f4f3df9f71ae60405160405180910390a3505050565b6000826000016009806020026040519081016040528092919082600980156111a3576020028201916000905b82829054906101000a900460ff16600281111561117d5761117c612107565b5b8152602001906001019060208260000104928301926001038202915080841161115d5790505b505050505090508160028111156111bd576111bc612107565b5b816000600981106111d1576111d0612136565b5b602002015160028111156111e8576111e7612107565b5b148015611230575081600281111561120357611202612107565b5b8160016009811061121757611216612136565b5b6020020151600281111561122e5761122d612107565b5b145b8015611277575081600281111561124a57611249612107565b5b8160026009811061125e5761125d612136565b5b6020020151600281111561127557611274612107565b5b145b8061134b57508160028111156112905761128f612107565b5b816003600981106112a4576112a3612136565b5b602002015160028111156112bb576112ba612107565b5b14801561130357508160028111156112d6576112d5612107565b5b816004600981106112ea576112e9612136565b5b6020020151600281111561130157611300612107565b5b145b801561134a575081600281111561131d5761131c612107565b5b8160056009811061133157611330612136565b5b6020020151600281111561134857611347612107565b5b145b5b8061141f575081600281111561136457611363612107565b5b8160066009811061137857611377612136565b5b6020020151600281111561138f5761138e612107565b5b1480156113d757508160028111156113aa576113a9612107565b5b816007600981106113be576113bd612136565b5b602002015160028111156113d5576113d4612107565b5b145b801561141e57508160028111156113f1576113f0612107565b5b8160086009811061140557611404612136565b5b6020020151600281111561141c5761141b612107565b5b145b5b806114f3575081600281111561143857611437612107565b5b8160006009811061144c5761144b612136565b5b6020020151600281111561146357611462612107565b5b1480156114ab575081600281111561147e5761147d612107565b5b8160036009811061149257611491612136565b5b602002015160028111156114a9576114a8612107565b5b145b80156114f257508160028111156114c5576114c4612107565b5b816006600981106114d9576114d8612136565b5b602002015160028111156114f0576114ef612107565b5b145b5b806115c7575081600281111561150c5761150b612107565b5b816001600981106115205761151f612136565b5b6020020151600281111561153757611536612107565b5b14801561157f575081600281111561155257611551612107565b5b8160046009811061156657611565612136565b5b6020020151600281111561157d5761157c612107565b5b145b80156115c6575081600281111561159957611598612107565b5b816007600981106115ad576115ac612136565b5b602002015160028111156115c4576115c3612107565b5b145b5b8061169b57508160028111156115e0576115df612107565b5b816002600981106115f4576115f3612136565b5b6020020151600281111561160b5761160a612107565b5b148015611653575081600281111561162657611625612107565b5b8160056009811061163a57611639612136565b5b6020020151600281111561165157611650612107565b5b145b801561169a575081600281111561166d5761166c612107565b5b8160086009811061168157611680612136565b5b6020020151600281111561169857611697612107565b5b145b5b8061176f57508160028111156116b4576116b3612107565b5b816000600981106116c8576116c7612136565b5b602002015160028111156116df576116de612107565b5b14801561172757508160028111156116fa576116f9612107565b5b8160046009811061170e5761170d612136565b5b6020020151600281111561172557611724612107565b5b145b801561176e575081600281111561174157611740612107565b5b8160086009811061175557611754612136565b5b6020020151600281111561176c5761176b612107565b5b145b5b80611843575081600281111561178857611787612107565b5b8160026009811061179c5761179b612136565b5b602002015160028111156117b3576117b2612107565b5b1480156117fb57508160028111156117ce576117cd612107565b5b816004600981106117e2576117e1612136565b5b602002015160028111156117f9576117f8612107565b5b145b8015611842575081600281111561181557611814612107565b5b8160066009811061182957611828612136565b5b602002015160028111156118405761183f612107565b5b145b5b1561190b576001600281111561185c5761185b612107565b5b82600281111561186f5761186e612107565b5b1461189e578260030160009054906101000a900473ffffffffffffffffffffffffffffffffffffffff166118c4565b8260020160009054906101000a900473ffffffffffffffffffffffffffffffffffffffff165b8360010160006101000a81548173ffffffffffffffffffffffffffffffffffffffff021916908373ffffffffffffffffffffffffffffffffffffffff1602179055506119cf565b6000805b600981101561197e576000600281111561192c5761192b612107565b5b83826009811061193f5761193e612136565b5b6020020151600281111561195657611955612107565b5b141561196b5781806119679061208f565b9250505b80806119769061208f565b91505061190f565b5060008114156119cd5760018460010160006101000a81548173ffffffffffffffffffffffffffffffffffffffff021916908373ffffffffffffffffffffffffffffffffffffffff1602179055505b505b505050565b826009601f01602090048101928215611a6c5791602002820160005b83821115611a3d57835183826101000a81548160ff02191690836002811115611a1c57611a1b612107565b5b021790555092602001926001016020816000010492830192600103026119f0565b8015611a6a5782816101000a81549060ff0219169055600101602081600001049283019260010302611a3d565b505b509050611a799190611b0d565b5090565b6040518060c00160405280611a90611b2a565b8152602001600073ffffffffffffffffffffffffffffffffffffffff168152602001600073ffffffffffffffffffffffffffffffffffffffff168152602001600073ffffffffffffffffffffffffffffffffffffffff1681526020016000815260200160006002811115611b0757611b06612107565b5b81525090565b5b80821115611b26576000816000905550600101611b0e565b5090565b604051806101200160405280600990602082028036833780820191505090505090565b600081359050611b5c8161230f565b92915050565b600081359050611b7181612326565b92915050565b600060208284031215611b8d57611b8c612165565b5b6000611b9b84828501611b4d565b91505092915050565b60008060408385031215611bbb57611bba612165565b5b6000611bc985828601611b4d565b9250506020611bda85828601611b62565b9150509250929050565b6000611bf08383611c71565b60208301905092915050565b611c0581612021565b82525050565b611c1481612021565b82525050565b611c2381611f97565b611c2d8184611faf565b9250611c3882611f8d565b8060005b83811015611c69578151611c508782611be4565b9650611c5b83611fa2565b925050600181019050611c3c565b505050505050565b611c7a8161207d565b82525050565b611c898161207d565b82525050565b6000611c9c602b83611fba565b9150611ca78261216a565b604082019050919050565b6000611cbf601283611fba565b9150611cca826121b9565b602082019050919050565b6000611ce2601883611fba565b9150611ced826121e2565b602082019050919050565b6000611d05602183611fba565b9150611d108261220b565b604082019050919050565b6000611d28601a83611fba565b9150611d338261225a565b602082019050919050565b6000611d4b602783611fba565b9150611d5682612283565b604082019050919050565b6000611d6e601883611fba565b9150611d79826122d2565b602082019050919050565b6101c082016000820151611d9b6000850182611c1a565b506020820151611daf610120850182611bfc565b506040820151611dc3610140850182611bfc565b506060820151611dd7610160850182611bfc565b506080820151611deb610180850182611e05565b5060a0820151611dff6101a0850182611c71565b50505050565b611e0e81612066565b82525050565b611e1d81612066565b82525050565b600060a082019050611e386000830188611c0b565b611e456020830187611c0b565b611e526040830186611c0b565b611e5f6060830185611e14565b611e6c6080830184611c80565b9695505050505050565b60006020820190508181036000830152611e8f81611c8f565b9050919050565b60006020820190508181036000830152611eaf81611cb2565b9050919050565b60006020820190508181036000830152611ecf81611cd5565b9050919050565b60006020820190508181036000830152611eef81611cf8565b9050919050565b60006020820190508181036000830152611f0f81611d1b565b9050919050565b60006020820190508181036000830152611f2f81611d3e565b9050919050565b60006020820190508181036000830152611f4f81611d61565b9050919050565b60006101c082019050611f6c6000830184611d84565b92915050565b6000602082019050611f876000830184611e14565b92915050565b6000819050919050565b600060099050919050565b6000602082019050919050565b600081905092915050565b600082825260208201905092915050565b6000611fd682612066565b9150611fe183612066565b9250827fffffffffffffffffffffffffffffffffffffffffffffffffffffffffffffffff03821115612016576120156120d8565b5b828201905092915050565b600061202c82612046565b9050919050565b6000819050612041826122fb565b919050565b600073ffffffffffffffffffffffffffffffffffffffff82169050919050565b6000819050919050565b600060ff82169050919050565b600061208882612033565b9050919050565b600061209a82612066565b91507fffffffffffffffffffffffffffffffffffffffffffffffffffffffffffffffff8214156120cd576120cc6120d8565b5b600182019050919050565b7f4e487b7100000000000000000000000000000000000000000000000000000000600052601160045260246000fd5b7f4e487b7100000000000000000000000000000000000000000000000000000000600052602160045260246000fd5b7f4e487b7100000000000000000000000000000000000000000000000000000000600052603260045260246000fd5b600080fd5b7f7468652073656e742076616c756520697320696e737566696369656e7420666f60008201527f7220746869732067616d65000000000000000000000000000000000000000000602082015250565b7f69742773206e6f7420796f7572207475726e0000000000000000000000000000600082015250565b7f796f752063616e277420706c617920746869732067616d650000000000000000600082015250565b7f796f7520617265206e6f74206120706c61796572206f6620746869732067616d60008201527f6500000000000000000000000000000000000000000000000000000000000000602082015250565b7f746869732063656c6c20697320616c72656164792074616b656e000000000000600082015250565b7f796f75206861766520746f2073656e6420736f6d652045544820666f7220746860008201527f65207072697a6500000000000000000000000000000000000000000000000000602082015250565b7f796f752063616e2774206a6f696e20746869732067616d650000000000000000600082015250565b6003811061230c5761230b612107565b5b50565b61231881612066565b811461232357600080fd5b50565b61232f81612070565b811461233a57600080fd5b5056fea26469706673582212202d12e0b08f760566b1c5b1512fa5a2552c0bd763b21d420eb199439ea83aeb4f64736f6c63430008060033",
  "immutableReferences": {},
  "source": "// SPDX-License-Identifier: MIT\n\npragma solidity ^0.8.0;\npragma experimental ABIEncoderV2;\n\ncontract TicTacToe {\n    enum MoveType {\n        N,\n        x,\n        o\n    }\n\n    struct Game {\n        MoveType[9] squares; // x | o | N\n        address status; // 0 running | 1 tie | winner address\n        address player1; // x\n        address player2; // o\n        uint256 prize;\n        MoveType nextMoveTo; // x | o | N\n    }\n\n    mapping(uint256 => Game) public games;\n    uint256 public gamesCounter = 0;\n\n    modifier onlyActiveGame(uint256 _gameId) {\n        require(\n            games[_gameId].player1 != address(0) &&\n                games[_gameId].status == address(0),\n            \"you can't play this game\"\n        );\n        _;\n    }\n\n    modifier onlyPlayers(uint256 _gameId) {\n        Game storage game = games[_gameId];\n        require(\n            game.player1 == msg.sender || game.player2 == msg.sender,\n            \"you are not a player of this game\"\n        );\n        _;\n    }\n\n    event GameCreated(address indexed sender, uint256 indexed gameId);\n    event OpponentJoinedGame(address indexed sender, uint256 indexed gameId);\n    event MoveMade(address indexed sender, uint256 indexed gameId);\n\n    function startNewGame() external payable {\n        require(msg.value > 0, \"you have to send some ETH for the prize\");\n\n        gamesCounter++;\n        address addrZero = address(0);\n\n        games[gamesCounter] = Game(\n            [\n                MoveType.N,\n                MoveType.N,\n                MoveType.N,\n                MoveType.N,\n                MoveType.N,\n                MoveType.N,\n                MoveType.N,\n                MoveType.N,\n                MoveType.N\n            ],\n            addrZero,\n            msg.sender,\n            addrZero,\n            msg.value,\n            MoveType.x\n        );\n\n        emit GameCreated(msg.sender, gamesCounter);\n    }\n\n    function getGame(uint256 _gameId) external view returns (Game memory) {\n        return games[_gameId];\n    }\n\n    function joinGame(uint256 _gameId)\n        external\n        payable\n        onlyActiveGame(_gameId)\n    {\n        Game storage game = games[_gameId];\n\n        require(msg.sender != game.player1, \"you can't join this game\");\n        require(\n            msg.value >= game.prize,\n            \"the sent value is insuficient for this game\"\n        );\n\n        game.player2 = msg.sender;\n        game.prize += msg.value;\n\n        emit OpponentJoinedGame(msg.sender, _gameId);\n    }\n\n    function makeMove(uint256 _gameId, uint8 _move)\n        public\n        onlyActiveGame(_gameId)\n        onlyPlayers(_gameId)\n    {\n        Game storage game = games[_gameId];\n\n        MoveType senderMoveType = msg.sender == game.player1\n            ? MoveType.x\n            : MoveType.o;\n\n        require(senderMoveType == game.nextMoveTo, \"it's not your turn\");\n        require(\n            game.squares[_move] == MoveType.N,\n            \"this cell is already taken\"\n        );\n\n        game.squares[_move] = game.nextMoveTo;\n\n        updateGameStatus(game, game.nextMoveTo);\n\n        game.nextMoveTo = game.nextMoveTo == MoveType.o\n            ? MoveType.x\n            : MoveType.o;\n\n        if (game.status == game.player1) {\n            payable(game.player1).transfer(game.prize);\n        } else if (game.status == game.player2) {\n            payable(game.player2).transfer(game.prize);\n        }\n\n        emit MoveMade(msg.sender, _gameId);\n    }\n\n    function updateGameStatus(Game storage _game, MoveType _playerMove)\n        private\n    {\n        MoveType[9] memory squares = _game.squares;\n\n        if (\n            (squares[0] == _playerMove &&\n                squares[1] == _playerMove &&\n                squares[2] == _playerMove) ||\n            (squares[3] == _playerMove &&\n                squares[4] == _playerMove &&\n                squares[5] == _playerMove) ||\n            (squares[6] == _playerMove &&\n                squares[7] == _playerMove &&\n                squares[8] == _playerMove) ||\n            (squares[0] == _playerMove &&\n                squares[3] == _playerMove &&\n                squares[6] == _playerMove) ||\n            (squares[1] == _playerMove &&\n                squares[4] == _playerMove &&\n                squares[7] == _playerMove) ||\n            (squares[2] == _playerMove &&\n                squares[5] == _playerMove &&\n                squares[8] == _playerMove) ||\n            (squares[0] == _playerMove &&\n                squares[4] == _playerMove &&\n                squares[8] == _playerMove) ||\n            (squares[2] == _playerMove &&\n                squares[4] == _playerMove &&\n                squares[6] == _playerMove)\n        ) {\n            _game.status = _playerMove == MoveType.x\n                ? _game.player1\n                : _game.player2;\n        } else {\n            uint256 freeCell = 0;\n            for (uint256 i = 0; i < 9; i++) {\n                if (squares[i] == MoveType.N) freeCell++;\n            }\n\n            if (freeCell == 0) {\n                _game.status = address(1);\n            }\n        }\n    }\n}\n",
  "sourcePath": "/home/ubuntu/projects/tic-tac-toe/backend/contracts/TicTacToe.sol",
  "compiler": {
    "name": "solc",
    "version": "0.8.6+commit.11564f7e.Emscripten.clang"
  },
  "schemaVersion": "3.4.2",
  "updatedAt": "2021-08-11T08:30:55.775Z",
  "networkType": "ethereum",
  "devdoc": {
    "kind": "dev",
    "methods": {},
    "version": 1
  },
  "userdoc": {
    "kind": "user",
    "methods": {},
    "version": 1
  }
}